:03000000020340B8
:10000300C0E0C0D0C000C001C002E4F538F539F546
:100013003AF53BF53C7A20E533A2E779047830E6FC
:1000230033F608D9FA79057838E636D4F608D9F9DB
:10003300DAE5D002D001D000D0D0D0E022C0E0C0B9
:10004300D0C000C001C002E4F538F539F53AF53BFC
:10005300F53C7A20E533A2E779047830E633F608F5
:10006300D9FA79057838C0D0E6243320E70224D0C2
:1000730020E30224FDD0D033F608D9EADAD6D00241
:10008300D001D000D0D0D0E022C0E0C0D0C000C0AA
:1000930001C0027A207905C3783CE613C0D030E76B
:1000A3000224D030E30224FDF618D0D0D9EC790431
:1000B3007833E613F618D9FADADBD002D001D00090
:1000C300D0D0D0E022C0E0C0D0E5302534F530E513
:1000D300313535F531E5323536F532E5333537F53A
:1000E30033D0D0D0E022C0E0C0D0C3E5309534F5A2
:1000F30030E5319535F531E5329536F532E5339511
:1001030037F533D0D0D0E022C0E0C0D0C3E530957E
:1001130034E5319535E5329536E53395379200D0A0
:10012300D0D0E022C0E0C0D0C3E5349530E53595AA
:1001330031E5369532E53795339200D0D0D0E022C1
:10014300C0E0C0D0C200C3E53495307014E53595E6
:1001530031700EE53695327008E53795337002D26B
:1001630000D0D0D0E0221201432000030201272255
:1001730012014320000302010B22C0E0C0F0C0D0F3
:10018300C000C001C002C003E5308534F0A4F8A963
:10019300F0E5318534F0A429F9E435F0FAE530854A
:1001A30035F0A429F9E5F03AFAE433FBE532853476
:1001B300F0A42AFAE5F03BFBE5318535F0A42AFAF1
:1001C300E5F03BFBE5308536F0A42AFAE5F03BFB8E
:1001D300E5338534F0A42BFBE5328535F0A42BFB06
:1001E300E5318536F0A42BFBE5308537F0A42BFBF6
:1001F3008B338A3289318830D003D002D001D000CA
:10020300D0D0D0F0D0E022C0E0C0D0C000C001C048
:1002130002C003C0047C20E4F8F9FAFBC3E53033E1
:10022300F530E53133F531E53233F532E53333F586
:1002330033E833F8E933F9EA33FAEB33FBC3E895F0
:1002430034E99535EA9536EB95374013E89534F85C
:10025300E99535F9EA9536FAEB9537FB433001DC3E
:10026300BBD004D003D002D001D000D0D0D0E02244
:1002730085303485313585323685333722E530C5CF
:1002830034F530E531C535F531E532C536F532E5BE
:0602930033C537F53322EC
:10029900C0F9A4B0999282F88090900299E53854F7
:1002A9000F93F591E538C4540F93F592E539540F3E
:1002B90093F593E539C4540F93F594E53A540F93A4
:1002C900F58EE53AC4540F93F58F227804C3E538C7
:1002D90033F538E53933F539E53A33F53AE53B3362
:1002E900F53BE53C33F53CD8E4EF4538F538E4F522
:1002F9003C22781E794A7AFADAFED9FAD8F622AC83
:10030900E8E5955403FDEC4D602B1202FBE5E8C3CB
:100319009C7022E5955403C39D701A7F10C3EC337A
:10032900FCED33FD4004DFF5800B1FD3E5E870FCDD
:10033900E59570FC22C32275817FE4F5E8F595F512
:1003490038F539F53AF53BF53C1202A375F000D2C0
:10035900E820FB3530FBFD05F0E5F0540312036E90
:10036900F5F002035AB4000675E800D2E822B40198
:100379000675E800D2E922B4020675E800D2EA223D
:10038900B403E275E800D2EB2220FA1E30FAFD121E
:10039900008C1202737530007531007532007533A7
:1003A900001200031202A302035A20F94D30F9FD8D
:1003B90012008CE5F0B4000C1200C81200031202FE
:1003C900A302035AB4010F1202801200E9120003BA
:1003D9001202A302035AB4020F12028012017D1203
:1003E90000031202A302035AB403D91202801202B3
:1003F9000A1200031202A302035A1203085006123A
:0804090002D41202A302035AFF
:00000001FF
