:100000000200107A5A79FA78FAD8FED9FADAF6228A
:1000100075817F75E800759500758E61759406751C
:100020009312759241759112758E61759406759350
:1000300012759241759112D2E8120003758E7F7588
:10004000947F75937F75927F75917FC2E81200034C
:1000500020E81E758E611200037594061200037568
:10006000931212000375924112000375911212004F
:1000700003E5E8B45412758E3F75943F75933F7550
:0A008000923F75913F120003809E2D
:00000001FF
