:1000000002001D7DB27CFA7BFADBFEDCFADDF62213
:100010007D457C457B45DBFEDCFADDF62275817F84
:1000200075E800759500120029E5E8B40015758F94
:1000300030758E007594F97593F97592307591123B
:10004000020029E5E8B40115758F7F758E7F7594E0
:100050007F75937F759219759119020043E5E8B495
:100060000242758F30758E007594F97593F975920B
:10007000307591127919781912000302007EE5E8B3
:10008000B40221AA8F858E8F85948E859394859254
:1000900093859192899188F0A9F08AF0A8F01200D6
:1000A0000302007EE5E8B40342758F30758E00755B
:1000B00094F97593F975923075911279197819122E
:1000C00000030200C5E5E8B40321AA918592918559
:1000D0009392859493858E94858F8E888F89F0A8CE
:1000E000F08AF0A9F01200030200C5E5E8B404327A
:1000F000758FF9758EF9759430759312759219751F
:100100009119E5E8B4041B120003758F7F758E7F8B
:1001100075947F75937F75927F75917F12000302AE
:1001200000EB1201CD758F7F758E7F75947F75936F
:100130007F75927F75917F1201CD120003758F300C
:10014000758E7F75947F75937F75927F75917F1201
:1001500001CD120003758F30758E0075947F7593F5
:100160007F75927F75917F1201CD120003758F30DC
:10017000758E007594F975937F75927F75917F12D6
:1001800001CD120003758F30758E007594F975934B
:10019000F975927F75917F1201CD120003758F3032
:1001A000758E007594F97593F975923075917F127B
:1001B00001CD120003758F30758E007594F975931B
:1001C000F9759230759112120003020122E5E8B42C
:1001D000050122E5E8B4064C758F09758E06759405
:1001E0004775934775924075917FE5E8B4063512DF
:1001F0000003758F30758E007594F97593F97592BB
:1002000030759112E5E8B4061B120003758F467530
:100210008E0C7594487593307592F975912412007F
:10022000030201D3E5E8B40766758FF9758E7F7513
:10023000943075937F75921975917FE5E8B4074FF7
:10024000120010758F7F758EF975947F75931275F6
:10025000927F759119E5E8B40735120010758F305B
:10026000758E7F7594F975937F75923075917FE5E2
:10027000E8B4071B120010758F7F758E0075947F90
:100280007593F975927F7591121200100202240283
:02029000002943
:00000001FF
